{
  "_format": "hh-sol-artifact-1",
  "contractName": "IdeaPortal",
  "sourceName": "contracts/IdeaPortal.sol",
  "abi": [
    {
      "inputs": [],
      "name": "getIdeas",
      "outputs": [
        {
          "components": [
            {
              "internalType": "uint16",
              "name": "id",
              "type": "uint16"
            },
            {
              "internalType": "uint16",
              "name": "votes",
              "type": "uint16"
            },
            {
              "internalType": "string",
              "name": "idea",
              "type": "string"
            },
            {
              "internalType": "address",
              "name": "user",
              "type": "address"
            }
          ],
          "internalType": "struct IdeaPortal.Idea[]",
          "name": "",
          "type": "tuple[]"
        }
      ],
      "stateMutability": "view",
      "type": "function"
    },
    {
      "inputs": [],
      "name": "numOfIdeas",
      "outputs": [
        {
          "internalType": "uint16",
          "name": "",
          "type": "uint16"
        }
      ],
      "stateMutability": "view",
      "type": "function"
    },
    {
      "inputs": [
        {
          "internalType": "string",
          "name": "_idea",
          "type": "string"
        }
      ],
      "name": "setIdea",
      "outputs": [],
      "stateMutability": "nonpayable",
      "type": "function"
    },
    {
      "inputs": [
        {
          "internalType": "uint16",
          "name": "_id",
          "type": "uint16"
        }
      ],
      "name": "upVoteIdea",
      "outputs": [],
      "stateMutability": "nonpayable",
      "type": "function"
    },
    {
      "inputs": [
        {
          "internalType": "address",
          "name": "_wallet",
          "type": "address"
        }
      ],
      "name": "walletHoldsToken",
      "outputs": [
        {
          "internalType": "bool",
          "name": "",
          "type": "bool"
        }
      ],
      "stateMutability": "view",
      "type": "function"
    }
  ],
  "bytecode": "0x6080604052733cd266509d127d0eac42f4474f57d0526804b44e6000806101000a81548173ffffffffffffffffffffffffffffffffffffffff021916908373ffffffffffffffffffffffffffffffffffffffff16021790555034801561006457600080fd5b50610e1e806100746000396000f3fe608060405234801561001057600080fd5b50600436106100575760003560e01c8063044858411461005c57806326935b601461007a5780635361fc2a146100aa5780637fb75ded146100c6578063a51660a7146100e4575b600080fd5b610064610100565b6040516100719190610a82565b60405180910390f35b610094600480360381019061008f9190610818565b610287565b6040516100a19190610aa4565b60405180910390f35b6100c460048036038101906100bf9190610882565b61033b565b005b6100ce6104db565b6040516100db9190610adf565b60405180910390f35b6100fe60048036038101906100f99190610841565b6104ef565b005b60606003805480602002602001604051908101604052809291908181526020016000905b8282101561027e57838290600052602060002090600302016040518060800160405290816000820160009054906101000a900461ffff1661ffff1661ffff1681526020016000820160029054906101000a900461ffff1661ffff1661ffff16815260200160018201805461019790610c4e565b80601f01602080910402602001604051908101604052809291908181526020018280546101c390610c4e565b80156102105780601f106101e557610100808354040283529160200191610210565b820191906000526020600020905b8154815290600101906020018083116101f357829003601f168201915b505050505081526020016002820160009054906101000a900473ffffffffffffffffffffffffffffffffffffffff1673ffffffffffffffffffffffffffffffffffffffff1673ffffffffffffffffffffffffffffffffffffffff168152505081526020019060010190610124565b50505050905090565b60008060008054906101000a900473ffffffffffffffffffffffffffffffffffffffff1673ffffffffffffffffffffffffffffffffffffffff166370a08231846040518263ffffffff1660e01b81526004016102e39190610a67565b60206040518083038186803b1580156102fb57600080fd5b505afa15801561030f573d6000803e3d6000fd5b505050506040513d601f19601f8201168201806040525081019061033391906108ab565b119050919050565b60001515600260008361ffff16815260200190815260200160002060003373ffffffffffffffffffffffffffffffffffffffff1673ffffffffffffffffffffffffffffffffffffffff16815260200190815260200160002060009054906101000a900460ff161515146103e3576040517f08c379a00000000000000000000000000000000000000000000000000000000081526004016103da90610abf565b60405180910390fd5b6001600260008361ffff16815260200190815260200160002060003373ffffffffffffffffffffffffffffffffffffffff1673ffffffffffffffffffffffffffffffffffffffff16815260200190815260200160002060006101000a81548160ff02191690831515021790555060038161ffff168154811061048e577f4e487b7100000000000000000000000000000000000000000000000000000000600052603260045260246000fd5b9060005260206000209060030201600001600281819054906101000a900461ffff16809291906104bd90610cb1565b91906101000a81548161ffff021916908361ffff1602179055505050565b600060149054906101000a900461ffff1681565b60036040518060800160405280600060149054906101000a900461ffff1661ffff168152602001600061ffff1681526020018381526020013373ffffffffffffffffffffffffffffffffffffffff16815250908060018154018082558091505060019003906000526020600020906003020160009091909190915060008201518160000160006101000a81548161ffff021916908361ffff16021790555060208201518160000160026101000a81548161ffff021916908361ffff16021790555060408201518160010190805190602001906105cc9291906106ce565b5060608201518160020160006101000a81548173ffffffffffffffffffffffffffffffffffffffff021916908373ffffffffffffffffffffffffffffffffffffffff1602179055505050600160003373ffffffffffffffffffffffffffffffffffffffff1673ffffffffffffffffffffffffffffffffffffffff168152602001908152602001600020600060149054906101000a900461ffff16908060018154018082558091505060019003906000526020600020016000909161ffff169091909150556000601481819054906101000a900461ffff16809291906106b090610cb1565b91906101000a81548161ffff021916908361ffff1602179055505050565b8280546106da90610c4e565b90600052602060002090601f0160209004810192826106fc5760008555610743565b82601f1061071557805160ff1916838001178555610743565b82800160010185558215610743579182015b82811115610742578251825591602001919060010190610727565b5b5090506107509190610754565b5090565b5b8082111561076d576000816000905550600101610755565b5090565b600061078461077f84610b1f565b610afa565b90508281526020810184848401111561079c57600080fd5b6107a7848285610c0c565b509392505050565b6000813590506107be81610da3565b92915050565b600082601f8301126107d557600080fd5b81356107e5848260208601610771565b91505092915050565b6000813590506107fd81610dba565b92915050565b60008151905061081281610dd1565b92915050565b60006020828403121561082a57600080fd5b6000610838848285016107af565b91505092915050565b60006020828403121561085357600080fd5b600082013567ffffffffffffffff81111561086d57600080fd5b610879848285016107c4565b91505092915050565b60006020828403121561089457600080fd5b60006108a2848285016107ee565b91505092915050565b6000602082840312156108bd57600080fd5b60006108cb84828501610803565b91505092915050565b60006108e083836109e6565b905092915050565b6108f181610bb6565b82525050565b61090081610bb6565b82525050565b600061091182610b60565b61091b8185610b83565b93508360208202850161092d85610b50565b8060005b85811015610969578484038952815161094a85826108d4565b945061095583610b76565b925060208a01995050600181019050610931565b50829750879550505050505092915050565b61098481610bc8565b82525050565b600061099582610b6b565b61099f8185610b94565b93506109af818560208601610c1b565b6109b881610d69565b840191505092915050565b60006109d0601483610ba5565b91506109db82610d7a565b602082019050919050565b60006080830160008301516109fe6000860182610a49565b506020830151610a116020860182610a49565b5060408301518482036040860152610a29828261098a565b9150506060830151610a3e60608601826108e8565b508091505092915050565b610a5281610bd4565b82525050565b610a6181610bd4565b82525050565b6000602082019050610a7c60008301846108f7565b92915050565b60006020820190508181036000830152610a9c8184610906565b905092915050565b6000602082019050610ab9600083018461097b565b92915050565b60006020820190508181036000830152610ad8816109c3565b9050919050565b6000602082019050610af46000830184610a58565b92915050565b6000610b04610b15565b9050610b108282610c80565b919050565b6000604051905090565b600067ffffffffffffffff821115610b3a57610b39610d3a565b5b610b4382610d69565b9050602081019050919050565b6000819050602082019050919050565b600081519050919050565b600081519050919050565b6000602082019050919050565b600082825260208201905092915050565b600082825260208201905092915050565b600082825260208201905092915050565b6000610bc182610be2565b9050919050565b60008115159050919050565b600061ffff82169050919050565b600073ffffffffffffffffffffffffffffffffffffffff82169050919050565b6000819050919050565b82818337600083830152505050565b60005b83811015610c39578082015181840152602081019050610c1e565b83811115610c48576000848401525b50505050565b60006002820490506001821680610c6657607f821691505b60208210811415610c7a57610c79610d0b565b5b50919050565b610c8982610d69565b810181811067ffffffffffffffff82111715610ca857610ca7610d3a565b5b80604052505050565b6000610cbc82610bd4565b915061ffff821415610cd157610cd0610cdc565b5b600182019050919050565b7f4e487b7100000000000000000000000000000000000000000000000000000000600052601160045260246000fd5b7f4e487b7100000000000000000000000000000000000000000000000000000000600052602260045260246000fd5b7f4e487b7100000000000000000000000000000000000000000000000000000000600052604160045260246000fd5b6000601f19601f8301169050919050565b7f4964656120616c7265616479207570766f746564000000000000000000000000600082015250565b610dac81610bb6565b8114610db757600080fd5b50565b610dc381610bd4565b8114610dce57600080fd5b50565b610dda81610c02565b8114610de557600080fd5b5056fea2646970667358221220e33af5c2e6c6c8a4bc0bbf6015226886f2464af36a6cacd77e257e1b5b1017fd64736f6c63430008040033",
  "linkReferences": {},
  "deployedLinkReferences": {}
}