{
  "_format": "hh-sol-artifact-1",
  "contractName": "IdeaPortal",
  "sourceName": "contracts/IdeaPortal.sol",
  "abi": [
    {
      "anonymous": false,
      "inputs": [
        {
          "indexed": true,
          "internalType": "uint16",
          "name": "_id",
          "type": "uint16"
        },
        {
          "indexed": false,
          "internalType": "uint16",
          "name": "_votes",
          "type": "uint16"
        },
        {
          "indexed": false,
          "internalType": "string",
          "name": "_idea",
          "type": "string"
        },
        {
          "indexed": true,
          "internalType": "address",
          "name": "_from",
          "type": "address"
        }
      ],
      "name": "IdeaSet",
      "type": "event"
    },
    {
      "anonymous": false,
      "inputs": [
        {
          "indexed": true,
          "internalType": "address",
          "name": "_from",
          "type": "address"
        },
        {
          "indexed": false,
          "internalType": "bool",
          "name": "status",
          "type": "bool"
        }
      ],
      "name": "VoteChange",
      "type": "event"
    },
    {
      "inputs": [
        {
          "internalType": "uint16",
          "name": "_id",
          "type": "uint16"
        }
      ],
      "name": "checkIfUserUpvoted",
      "outputs": [
        {
          "internalType": "bool",
          "name": "",
          "type": "bool"
        }
      ],
      "stateMutability": "view",
      "type": "function"
    },
    {
      "inputs": [],
      "name": "getIdeas",
      "outputs": [
        {
          "components": [
            {
              "internalType": "uint16",
              "name": "id",
              "type": "uint16"
            },
            {
              "internalType": "uint16",
              "name": "votes",
              "type": "uint16"
            },
            {
              "internalType": "string",
              "name": "idea",
              "type": "string"
            },
            {
              "internalType": "address",
              "name": "user",
              "type": "address"
            }
          ],
          "internalType": "struct IdeaPortal.Idea[]",
          "name": "",
          "type": "tuple[]"
        }
      ],
      "stateMutability": "view",
      "type": "function"
    },
    {
      "inputs": [],
      "name": "numOfIdeas",
      "outputs": [
        {
          "internalType": "uint16",
          "name": "",
          "type": "uint16"
        }
      ],
      "stateMutability": "view",
      "type": "function"
    },
    {
      "inputs": [
        {
          "internalType": "address",
          "name": "_user",
          "type": "address"
        }
      ],
      "name": "returnUserIdeas",
      "outputs": [
        {
          "internalType": "uint256[]",
          "name": "",
          "type": "uint256[]"
        }
      ],
      "stateMutability": "view",
      "type": "function"
    },
    {
      "inputs": [
        {
          "internalType": "string",
          "name": "_idea",
          "type": "string"
        }
      ],
      "name": "setIdea",
      "outputs": [],
      "stateMutability": "nonpayable",
      "type": "function"
    },
    {
      "inputs": [
        {
          "internalType": "uint16",
          "name": "_id",
          "type": "uint16"
        }
      ],
      "name": "toggleVote",
      "outputs": [],
      "stateMutability": "nonpayable",
      "type": "function"
    },
    {
      "inputs": [
        {
          "internalType": "address",
          "name": "_wallet",
          "type": "address"
        }
      ],
      "name": "walletHoldsToken",
      "outputs": [
        {
          "internalType": "bool",
          "name": "",
          "type": "bool"
        }
      ],
      "stateMutability": "view",
      "type": "function"
    }
  ],
  "bytecode": "0x6080604052733cd266509d127d0eac42f4474f57d0526804b44e6000806101000a81548173ffffffffffffffffffffffffffffffffffffffff021916908373ffffffffffffffffffffffffffffffffffffffff16021790555034801561006457600080fd5b50611273806100746000396000f3fe608060405234801561001057600080fd5b506004361061007d5760003560e01c80635f1934f61161005b5780635f1934f6146101005780637fb75ded14610130578063a51660a71461014e578063e211e76b1461016a5761007d565b8063044858411461008257806320371c4e146100a057806326935b60146100d0575b600080fd5b61008a610186565b6040516100979190610e25565b60405180910390f35b6100ba60048036038101906100b59190610b11565b61030d565b6040516100c79190610e47565b60405180910390f35b6100ea60048036038101906100e59190610b11565b6103a4565b6040516100f79190610e69565b60405180910390f35b61011a60048036038101906101159190610b7b565b610458565b6040516101279190610e69565b60405180910390f35b6101386104c3565b6040516101459190610eb4565b60405180910390f35b61016860048036038101906101639190610b3a565b6104d7565b005b610184600480360381019061017f9190610b7b565b610728565b005b60606003805480602002602001604051908101604052809291908181526020016000905b8282101561030457838290600052602060002090600302016040518060800160405290816000820160009054906101000a900461ffff1661ffff1661ffff1681526020016000820160029054906101000a900461ffff1661ffff1661ffff16815260200160018201805461021d906110cc565b80601f0160208091040260200160405190810160405280929190818152602001828054610249906110cc565b80156102965780601f1061026b57610100808354040283529160200191610296565b820191906000526020600020905b81548152906001019060200180831161027957829003601f168201915b505050505081526020016002820160009054906101000a900473ffffffffffffffffffffffffffffffffffffffff1673ffffffffffffffffffffffffffffffffffffffff1673ffffffffffffffffffffffffffffffffffffffff1681525050815260200190600101906101aa565b50505050905090565b6060600160008373ffffffffffffffffffffffffffffffffffffffff1673ffffffffffffffffffffffffffffffffffffffff16815260200190815260200160002080548060200260200160405190810160405280929190818152602001828054801561039857602002820191906000526020600020905b815481526020019060010190808311610384575b50505050509050919050565b60008060008054906101000a900473ffffffffffffffffffffffffffffffffffffffff1673ffffffffffffffffffffffffffffffffffffffff166370a08231846040518263ffffffff1660e01b81526004016104009190610e0a565b60206040518083038186803b15801561041857600080fd5b505afa15801561042c573d6000803e3d6000fd5b505050506040513d601f19601f820116820180604052508101906104509190610ba4565b119050919050565b6000600260008361ffff16815260200190815260200160002060003373ffffffffffffffffffffffffffffffffffffffff1673ffffffffffffffffffffffffffffffffffffffff16815260200190815260200160002060009054906101000a900460ff169050919050565b600060149054906101000a900461ffff1681565b60036040518060800160405280600060149054906101000a900461ffff1661ffff168152602001600061ffff1681526020018381526020013373ffffffffffffffffffffffffffffffffffffffff16815250908060018154018082558091505060019003906000526020600020906003020160009091909190915060008201518160000160006101000a81548161ffff021916908361ffff16021790555060208201518160000160026101000a81548161ffff021916908361ffff16021790555060408201518160010190805190602001906105b49291906109c7565b5060608201518160020160006101000a81548173ffffffffffffffffffffffffffffffffffffffff021916908373ffffffffffffffffffffffffffffffffffffffff1602179055505050600160003373ffffffffffffffffffffffffffffffffffffffff1673ffffffffffffffffffffffffffffffffffffffff168152602001908152602001600020600060149054906101000a900461ffff16908060018154018082558091505060019003906000526020600020016000909161ffff169091909150556000601481819054906101000a900461ffff16809291906106989061112f565b91906101000a81548161ffff021916908361ffff160217905550503373ffffffffffffffffffffffffffffffffffffffff166001600060149054906101000a900461ffff166106e79190610fc4565b61ffff167f793626a8a0285c167078ee2e6f879f17d2d29844bd2abf1a0d43fff32afe59b360008460405161071d929190610e84565b60405180910390a350565b61073181610458565b1561087f576000600260008361ffff16815260200190815260200160002060003373ffffffffffffffffffffffffffffffffffffffff1673ffffffffffffffffffffffffffffffffffffffff16815260200190815260200160002060006101000a81548160ff02191690831515021790555060038161ffff16815481106107e1577f4e487b7100000000000000000000000000000000000000000000000000000000600052603260045260246000fd5b9060005260206000209060030201600001600281819054906101000a900461ffff1680929190610810906110a2565b91906101000a81548161ffff021916908361ffff160217905550503373ffffffffffffffffffffffffffffffffffffffff167fad1385855b0fc8450770fea51768384870ae4e7ac4b7ca40cff91a15a352327e60006040516108729190610e69565b60405180910390a26109c4565b6001600260008361ffff16815260200190815260200160002060003373ffffffffffffffffffffffffffffffffffffffff1673ffffffffffffffffffffffffffffffffffffffff16815260200190815260200160002060006101000a81548160ff02191690831515021790555060038161ffff168154811061092a577f4e487b7100000000000000000000000000000000000000000000000000000000600052603260045260246000fd5b9060005260206000209060030201600001600281819054906101000a900461ffff16809291906109599061112f565b91906101000a81548161ffff021916908361ffff160217905550503373ffffffffffffffffffffffffffffffffffffffff167fad1385855b0fc8450770fea51768384870ae4e7ac4b7ca40cff91a15a352327e60016040516109bb9190610e69565b60405180910390a25b50565b8280546109d3906110cc565b90600052602060002090601f0160209004810192826109f55760008555610a3c565b82601f10610a0e57805160ff1916838001178555610a3c565b82800160010185558215610a3c579182015b82811115610a3b578251825591602001919060010190610a20565b5b509050610a499190610a4d565b5090565b5b80821115610a66576000816000905550600101610a4e565b5090565b6000610a7d610a7884610ef4565b610ecf565b905082815260208101848484011115610a9557600080fd5b610aa0848285611060565b509392505050565b600081359050610ab7816111f8565b92915050565b600082601f830112610ace57600080fd5b8135610ade848260208601610a6a565b91505092915050565b600081359050610af68161120f565b92915050565b600081519050610b0b81611226565b92915050565b600060208284031215610b2357600080fd5b6000610b3184828501610aa8565b91505092915050565b600060208284031215610b4c57600080fd5b600082013567ffffffffffffffff811115610b6657600080fd5b610b7284828501610abd565b91505092915050565b600060208284031215610b8d57600080fd5b6000610b9b84828501610ae7565b91505092915050565b600060208284031215610bb657600080fd5b6000610bc484828501610afc565b91505092915050565b6000610bd98383610d7a565b905092915050565b6000610bed8383610dfb565b60208301905092915050565b610c0281610ff8565b82525050565b610c1181610ff8565b82525050565b6000610c2282610f45565b610c2c8185610f80565b935083602082028501610c3e85610f25565b8060005b85811015610c7a5784840389528151610c5b8582610bcd565b9450610c6683610f66565b925060208a01995050600181019050610c42565b50829750879550505050505092915050565b6000610c9782610f50565b610ca18185610f91565b9350610cac83610f35565b8060005b83811015610cdd578151610cc48882610be1565b9750610ccf83610f73565b925050600181019050610cb0565b5085935050505092915050565b610cf38161100a565b82525050565b610d028161104e565b82525050565b6000610d1382610f5b565b610d1d8185610fa2565b9350610d2d81856020860161106f565b610d36816111e7565b840191505092915050565b6000610d4c82610f5b565b610d568185610fb3565b9350610d6681856020860161106f565b610d6f816111e7565b840191505092915050565b6000608083016000830151610d926000860182610ddd565b506020830151610da56020860182610ddd565b5060408301518482036040860152610dbd8282610d08565b9150506060830151610dd26060860182610bf9565b508091505092915050565b610de681611016565b82525050565b610df581611016565b82525050565b610e0481611044565b82525050565b6000602082019050610e1f6000830184610c08565b92915050565b60006020820190508181036000830152610e3f8184610c17565b905092915050565b60006020820190508181036000830152610e618184610c8c565b905092915050565b6000602082019050610e7e6000830184610cea565b92915050565b6000604082019050610e996000830185610cf9565b8181036020830152610eab8184610d41565b90509392505050565b6000602082019050610ec96000830184610dec565b92915050565b6000610ed9610eea565b9050610ee582826110fe565b919050565b6000604051905090565b600067ffffffffffffffff821115610f0f57610f0e6111b8565b5b610f18826111e7565b9050602081019050919050565b6000819050602082019050919050565b6000819050602082019050919050565b600081519050919050565b600081519050919050565b600081519050919050565b6000602082019050919050565b6000602082019050919050565b600082825260208201905092915050565b600082825260208201905092915050565b600082825260208201905092915050565b600082825260208201905092915050565b6000610fcf82611016565b9150610fda83611016565b925082821015610fed57610fec61115a565b5b828203905092915050565b600061100382611024565b9050919050565b60008115159050919050565b600061ffff82169050919050565b600073ffffffffffffffffffffffffffffffffffffffff82169050919050565b6000819050919050565b600061105982611016565b9050919050565b82818337600083830152505050565b60005b8381101561108d578082015181840152602081019050611072565b8381111561109c576000848401525b50505050565b60006110ad82611016565b915060008214156110c1576110c061115a565b5b600182039050919050565b600060028204905060018216806110e457607f821691505b602082108114156110f8576110f7611189565b5b50919050565b611107826111e7565b810181811067ffffffffffffffff82111715611126576111256111b8565b5b80604052505050565b600061113a82611016565b915061ffff82141561114f5761114e61115a565b5b600182019050919050565b7f4e487b7100000000000000000000000000000000000000000000000000000000600052601160045260246000fd5b7f4e487b7100000000000000000000000000000000000000000000000000000000600052602260045260246000fd5b7f4e487b7100000000000000000000000000000000000000000000000000000000600052604160045260246000fd5b6000601f19601f8301169050919050565b61120181610ff8565b811461120c57600080fd5b50565b61121881611016565b811461122357600080fd5b50565b61122f81611044565b811461123a57600080fd5b5056fea26469706673582212208d71dc6299a71553617b82ec286c6098d1b5b9a89da9f12316052e52059d880c64736f6c63430008040033",
  "linkReferences": {},
  "deployedLinkReferences": {}
}